{
  "_comment": "`./build/contracts/TodoList.json`. This file is the smart contract ABI file, which stands for Abstract Binary Interface",
  "contractName": "TodoList",
  "abi": [
    {
      "constant": true,
      "inputs": [],
      "name": "taskCount",
      "outputs": [
        {
          "name": "",
          "type": "uint256"
        }
      ],
      "payable": false,
      "stateMutability": "view",
      "type": "function",
      "signature": "0xb6cb58a5"
    }
  ],
  "bytecode": "0x608060405260008055348015601357600080fd5b50609e806100226000396000f3fe608060405260043610603f576000357c0100000000000000000000000000000000000000000000000000000000900463ffffffff168063b6cb58a5146044575b600080fd5b348015604f57600080fd5b506056606c565b6040518082815260200191505060405180910390f35b6000548156fea165627a7a723058203773ec1567cc3d9dc197c40a063830c77710c020a8dc7977e74ffade385de6570029",
  "source": "pragma solidity >=0.5.0;\r\n\r\ncontract TodoList {\r\n    uint public taskCount = 0;  //state variable\r\n\r\n}\r\n",
  "sourcePath": "C:/Users/User/Desktop/2 GT 2 2021 2022/A_S2/PFA/eth-todo-list/contracts/TodoList.sol",
  "compiler": {
    "name": "solc",
    "version": "0.5.0+commit.1d4f565a.Emscripten.clang"
  },
  "schemaVersion": "3.0.1",
  "updatedAt": "2022-02-09T20:11:01.434Z",
  "devdoc": {
    "methods": {}
  },
  "userdoc": {
    "methods": {}
  }
}